:1000000002027C8B198A1A891B7D011204421DABE6
:1000100019051BE51BAA1A7002051A1205020DBD6F
:1000200010ED22020026C0E0C0F0C083C082C0D024
:1000300075D000C000C001C002C003C004C005C02C
:1000400006C007309902C299209803020162C29843
:10005000859912E51264537049750D03AF0D1204B2
:10006000F07BFF7A01797D7D017F011204947BFF93
:100070007A01798E7D017F021204947BFF7A0179E7
:100080009F7D017F031204947BFF7A0179B07D018B
:100090007F041204947B007A00790A7D0F7F04129A
:1000A0000494E512645A70347BFF7A0179C17D01B2
:1000B0007F011204947BFF7A0179D27D017F0212C5
:1000C00004947BFF7A0179E37D017F031204947B22
:1000D000FF7A0179C17D017F04120494E512644224
:1000E0006003020162150DE50D70317BFF7A017925
:1000F000C17D017F011204947BFF7A0179D27D01D9
:100100007F021204947BFF7A0179F47D017F031250
:1001100004947BFF7A0179C17D018041AF0D120407
:10012000F07BFF7A0279057D017F011204947BFF49
:100130007A0279167D017F021204947BFF7A02799C
:10014000277D017F031204947BFF7A0179B07D0142
:100150007F041204947B007A00790A7D0F7F0412D9
:100160000494D007D006D005D004D003D002D0012B
:10017000D000D0D0D082D083D0F0D0E0327C20200C
:10018000205750524F5741445A2020207C007C2059
:10019000202020204B4F442020202020207C007C49
:1001A000202020444F5354455055202020207C00CF
:1001B0007C4C49435A42412050524F423A20207CC5
:1001C000007C2D2D2D2D2D2D2D2D2D2D2D2D2D2D3D
:1001D0007C007C20202020444F5354455020202078
:1001E000207C007C20202050525A595A4E414E4FBC
:1001F00020207C007C20205A41424C4F4B4F5741DD
:100200004E4F207C007C424C45444E452048415393
:100210004C4F20207C007C5350524F42554A2020A6
:1002200020202020207C007C504F4E4F574E4945C7
:100230002020202020207C007C202020204B4C49A6
:100240004B4E494A2020207C007C20202050525ACE
:10025000594349534B2020207C007C202020202023
:100260002041425920202020207C007C2020205248
:100270004F5A504F435A414320207C00787FE4F688
:10028000D8FD7581200202C302035BE493A3F8E466
:1002900093A34003F68001F208DFF48029E493A3DE
:1002A000F85407240CC8C333C4540F4420C88340F7
:1002B00004F456800146F6DFE4800B0102040810C6
:1002C000204080900514E47E019360BCA3FF543F5E
:1002D00030E509541FFEE493A360010ECF54C025FE
:1002E000E060A840B8E493A3FAE493A3F8E493A3EE
:1002F000C8C582C8CAC583CAF0A3C8C582C8CAC552
:1003000083CADFE9DEE780BE12048775A083D2A628
:1003100012046DC2A612047AD2A612046DC2A612ED
:10032000046DD2A612046DC2A612046DC2A0D2A69C
:1003300012046DC2A612046D7F281203D27F01122F
:1003400003D27F081203D27F0C1203D27F0612035E
:10035000D27F0F1203D27F010203D21203081204CC
:10036000B67BFF7A0279387D017F011204947BFF0E
:100370007A0279497D017F021204947BFF7A027927
:100380005A7D017F031204947BFF7A02796B7D0111
:100390007F0412049480FE8B1C8A1D891E7F01122B
:1003A0000003AB1CE51E2410F9E4351DFA7F021290
:1003B0000003AB1CE51E2420F9E4351DFA7F03126F
:1003C0000003AB1CE51E2430F9E4351DFA7F04025E
:1003D0000003C2A4C2A5EFC4540F53A0F042A0D2A0
:1003E000A6C2A6EF540F53A0F042A0D2A6C2A643C5
:1003F000A00FD2A5C2A4D20030000ED2A6A2A39212
:1004000000C2A6D2A6C2A680EF22D2A4C2A5EFC483
:10041000540F53A0F042A0D2A6C2A6EF540F53A08F
:10042000F042A0D2A6C2A643A00FD2A5C2A4D20178
:1004300030010ED2A6A2A39201C2A6D2A6C2A68065
:10044000EF22AC07BC0107ED247FFF1203D2BC02F0
:1004500007ED24BFFF1203D2BC0307ED248FFF1268
:1004600003D2BC0407ED24CFFF1203D222750F0480
:10047000750EE0D50EFDD50FFA22750F14750E70AE
:10048000D50EFDD50FFA22750FC3750E89D50EFD59
:10049000D50FFA228B168A178918120442AB16AAB6
:1004A00017A9181204D7600D0518E5187002051772
:1004B00012050280E822C2B4750D0375985075C804
:1004C0003075CBFF75CDFF75CADC75CCDCD2ACD2F4
:1004D000AFD2CA750D0322BB010689828A83E0224E
:1004E0005002E722BBFE02E32289828A83E4932240
:1004F000E4F509EF75F00A8485F009E5092430F583
:100500000A2214F91204D7FF02040A7BFF7A057944
:1005100019020397020A330000537973742E20578F
:100520006275646F77616E65202D2D2D2D2D2D2D1B
:100530002D2D2D2D2D2D2D2D2D20204B2E204D758B
:10054000726177736B692020202D2D2D2D2D2D2D7F
:0A0550002D2D2D2D2D2D2D2D2D000C
:00000001FF
