:1000000002024775985053877F4387805389CF43B7
:100010008920758DFA758BFAD28EE4F50E43A8907F
:0100200022BD
:1000230002007912021475A083D2A61201FAC2A6A5
:10003300120207D2A61201FAC2A61201FAD2A6121E
:1000430001FAC2A61201FAC2A0D2A61201FAC2A6EE
:100053001201FA7F281201547F011201547F081202
:1000630001547F0C1201547F061201547F0F1201B9
:10007300547F01020154C0E0C0F0C083C082C0D0ED
:1000830075D000C000C001C002C003C004C005C0D9
:1000930006C00730981685990E7D0B7F031200CAA0
:1000A300AF0E12025C7F0C120154C298D007D00627
:1000B300D005D004D003D002D001D000D0D0D0825C
:1000C300D083D0F0D0E032AC07EC3395E0FEEF64A0
:1000D300014E7007ED247FFF120154ECFF3395E0CE
:1000E300FEEF64024E7007ED24BFFF120154ECFFD4
:1000F3003395E0FEEF64034E7007ED248FFF12018A
:1001030054AF04EF3395E0FEEF64044E7007ED2423
:10011300CFFF120154228B088A09890A7F01120139
:10012300C4AB08E50A2410F9E43509FA7F02120189
:10013300C4AB08E50A2420F9E43509FA7F03120168
:10014300C4AB08E50A2430F9E43509FA7F04020157
:10015300C4C2A4C2A5EFC4540F53A0F042A0D2A6B8
:10016300C2A6EF540F53A0F042A0D2A6C2A643A04A
:100173000FD2A5C2A4D20030000ED2A6A2A3920031
:10018300C2A6D2A6C2A680EF22D2A4C2A5EFC454AF
:100193000F53A0F042A0D2A6C2A6EF540F53A0F073
:1001A30042A0D2A6C2A643A00FD2A5C2A4D20130B8
:1001B300010ED2A6A2A39201C2A6D2A6C2A680EF26
:1001C300228B0B8A0C890D7D011200CA1DEDFF33B2
:1001D30095E0FEC3EF9410EE648094805018AB0B4F
:1001E300050DE50DAA0C7002050C14F9120221FF8E
:1001F30012025C0D80D722751004750FE0D50FFD38
:10020300D510FA22751014750F70D50FFDD510FA9D
:10021300227510C3750F89D50FFDD510FA22BB01C6
:100223000689828A83E0225002E722BBFE02E32290
:1002330089828A83E4932212002612000312025356
:10024300C2B480FE787FE4F6D8FD75812002023ABD
:100253007BFF7A02795F02011902018C2D57435902
:1002630032304958334E352D4D42412D2D2D2D2DF4
:100273002D2D2D2D2D2D2D2D2D2D2D2D204F646527
:100283006272616E6F3A2020202020202D2D2D2DAB
:0D0293002D2D2D2D2D2D2D2D2D2D2D2D0042
:00000001FF
